{
  "_format": "hh-sol-artifact-1",
  "contractName": "Blog",
  "sourceName": "src/Blog.sol",
  "abi": [
    {
      "inputs": [
        {
          "internalType": "address",
          "name": "_owner",
          "type": "address"
        },
        {
          "internalType": "string",
          "name": "_name",
          "type": "string"
        }
      ],
      "stateMutability": "nonpayable",
      "type": "constructor"
    },
    {
      "anonymous": false,
      "inputs": [
        {
          "indexed": true,
          "internalType": "uint256",
          "name": "id",
          "type": "uint256"
        },
        {
          "indexed": true,
          "internalType": "address",
          "name": "author",
          "type": "address"
        },
        {
          "indexed": false,
          "internalType": "string",
          "name": "title",
          "type": "string"
        },
        {
          "indexed": false,
          "internalType": "string",
          "name": "body",
          "type": "string"
        },
        {
          "indexed": false,
          "internalType": "uint256",
          "name": "timestamp",
          "type": "uint256"
        }
      ],
      "name": "PostCreated",
      "type": "event"
    },
    {
      "inputs": [],
      "name": "MAX_BODY_LENGTH",
      "outputs": [
        {
          "internalType": "uint256",
          "name": "",
          "type": "uint256"
        }
      ],
      "stateMutability": "view",
      "type": "function"
    },
    {
      "inputs": [],
      "name": "MAX_TITLE_LENGTH",
      "outputs": [
        {
          "internalType": "uint256",
          "name": "",
          "type": "uint256"
        }
      ],
      "stateMutability": "view",
      "type": "function"
    },
    {
      "inputs": [
        {
          "internalType": "uint256",
          "name": "id",
          "type": "uint256"
        }
      ],
      "name": "deletePost",
      "outputs": [],
      "stateMutability": "nonpayable",
      "type": "function"
    },
    {
      "inputs": [
        {
          "internalType": "uint256",
          "name": "id",
          "type": "uint256"
        },
        {
          "internalType": "string",
          "name": "newTitle",
          "type": "string"
        },
        {
          "internalType": "string",
          "name": "newBody",
          "type": "string"
        }
      ],
      "name": "editPost",
      "outputs": [],
      "stateMutability": "nonpayable",
      "type": "function"
    },
    {
      "inputs": [],
      "name": "getAllActivePosts",
      "outputs": [
        {
          "components": [
            {
              "internalType": "uint256",
              "name": "id",
              "type": "uint256"
            },
            {
              "internalType": "address",
              "name": "author",
              "type": "address"
            },
            {
              "internalType": "string",
              "name": "title",
              "type": "string"
            },
            {
              "internalType": "string",
              "name": "body",
              "type": "string"
            },
            {
              "internalType": "uint256",
              "name": "timestamp",
              "type": "uint256"
            },
            {
              "internalType": "uint256",
              "name": "blockNumber",
              "type": "uint256"
            },
            {
              "internalType": "bool",
              "name": "deleted",
              "type": "bool"
            }
          ],
          "internalType": "struct Blog.Post[]",
          "name": "",
          "type": "tuple[]"
        }
      ],
      "stateMutability": "view",
      "type": "function"
    },
    {
      "inputs": [
        {
          "internalType": "uint256",
          "name": "id",
          "type": "uint256"
        }
      ],
      "name": "getPost",
      "outputs": [
        {
          "components": [
            {
              "internalType": "uint256",
              "name": "id",
              "type": "uint256"
            },
            {
              "internalType": "address",
              "name": "author",
              "type": "address"
            },
            {
              "internalType": "string",
              "name": "title",
              "type": "string"
            },
            {
              "internalType": "string",
              "name": "body",
              "type": "string"
            },
            {
              "internalType": "uint256",
              "name": "timestamp",
              "type": "uint256"
            },
            {
              "internalType": "uint256",
              "name": "blockNumber",
              "type": "uint256"
            },
            {
              "internalType": "bool",
              "name": "deleted",
              "type": "bool"
            }
          ],
          "internalType": "struct Blog.Post",
          "name": "",
          "type": "tuple"
        }
      ],
      "stateMutability": "view",
      "type": "function"
    },
    {
      "inputs": [
        {
          "internalType": "uint256[]",
          "name": "ids",
          "type": "uint256[]"
        }
      ],
      "name": "getPosts",
      "outputs": [
        {
          "components": [
            {
              "internalType": "uint256",
              "name": "id",
              "type": "uint256"
            },
            {
              "internalType": "address",
              "name": "author",
              "type": "address"
            },
            {
              "internalType": "string",
              "name": "title",
              "type": "string"
            },
            {
              "internalType": "string",
              "name": "body",
              "type": "string"
            },
            {
              "internalType": "uint256",
              "name": "timestamp",
              "type": "uint256"
            },
            {
              "internalType": "uint256",
              "name": "blockNumber",
              "type": "uint256"
            },
            {
              "internalType": "bool",
              "name": "deleted",
              "type": "bool"
            }
          ],
          "internalType": "struct Blog.Post[]",
          "name": "",
          "type": "tuple[]"
        }
      ],
      "stateMutability": "view",
      "type": "function"
    },
    {
      "inputs": [
        {
          "internalType": "uint256",
          "name": "start",
          "type": "uint256"
        },
        {
          "internalType": "uint256",
          "name": "end",
          "type": "uint256"
        },
        {
          "internalType": "bool",
          "name": "includeDeleted",
          "type": "bool"
        }
      ],
      "name": "getPostsRange",
      "outputs": [
        {
          "components": [
            {
              "internalType": "uint256",
              "name": "id",
              "type": "uint256"
            },
            {
              "internalType": "address",
              "name": "author",
              "type": "address"
            },
            {
              "internalType": "string",
              "name": "title",
              "type": "string"
            },
            {
              "internalType": "string",
              "name": "body",
              "type": "string"
            },
            {
              "internalType": "uint256",
              "name": "timestamp",
              "type": "uint256"
            },
            {
              "internalType": "uint256",
              "name": "blockNumber",
              "type": "uint256"
            },
            {
              "internalType": "bool",
              "name": "deleted",
              "type": "bool"
            }
          ],
          "internalType": "struct Blog.Post[]",
          "name": "",
          "type": "tuple[]"
        }
      ],
      "stateMutability": "view",
      "type": "function"
    },
    {
      "inputs": [],
      "name": "name",
      "outputs": [
        {
          "internalType": "string",
          "name": "",
          "type": "string"
        }
      ],
      "stateMutability": "view",
      "type": "function"
    },
    {
      "inputs": [],
      "name": "owner",
      "outputs": [
        {
          "internalType": "address",
          "name": "",
          "type": "address"
        }
      ],
      "stateMutability": "view",
      "type": "function"
    },
    {
      "inputs": [],
      "name": "postCount",
      "outputs": [
        {
          "internalType": "uint256",
          "name": "",
          "type": "uint256"
        }
      ],
      "stateMutability": "view",
      "type": "function"
    },
    {
      "inputs": [
        {
          "internalType": "uint256",
          "name": "",
          "type": "uint256"
        }
      ],
      "name": "posts",
      "outputs": [
        {
          "internalType": "uint256",
          "name": "id",
          "type": "uint256"
        },
        {
          "internalType": "address",
          "name": "author",
          "type": "address"
        },
        {
          "internalType": "string",
          "name": "title",
          "type": "string"
        },
        {
          "internalType": "string",
          "name": "body",
          "type": "string"
        },
        {
          "internalType": "uint256",
          "name": "timestamp",
          "type": "uint256"
        },
        {
          "internalType": "uint256",
          "name": "blockNumber",
          "type": "uint256"
        },
        {
          "internalType": "bool",
          "name": "deleted",
          "type": "bool"
        }
      ],
      "stateMutability": "view",
      "type": "function"
    },
    {
      "inputs": [
        {
          "internalType": "string",
          "name": "title",
          "type": "string"
        },
        {
          "internalType": "string",
          "name": "body",
          "type": "string"
        }
      ],
      "name": "publish",
      "outputs": [],
      "stateMutability": "nonpayable",
      "type": "function"
    },
    {
      "inputs": [
        {
          "internalType": "address",
          "name": "newOwner",
          "type": "address"
        }
      ],
      "name": "transferOwnership",
      "outputs": [],
      "stateMutability": "nonpayable",
      "type": "function"
    }
  ],
  "bytecode": "0x60806040523480156200001157600080fd5b5060405162001c3e38038062001c3e83398101604081905262000034916200007c565b600080546001600160a01b0319166001600160a01b03841617905560016200005d828262000201565b505050620002cd565b634e487b7160e01b600052604160045260246000fd5b600080604083850312156200009057600080fd5b82516001600160a01b0381168114620000a857600080fd5b602084810151919350906001600160401b0380821115620000c857600080fd5b818601915086601f830112620000dd57600080fd5b815181811115620000f257620000f262000066565b604051601f8201601f19908116603f011681019083821181831017156200011d576200011d62000066565b8160405282815289868487010111156200013657600080fd5b600093505b828410156200015a57848401860151818501870152928501926200013b565b60008684830101528096505050505050509250929050565b600181811c908216806200018757607f821691505b602082108103620001a857634e487b7160e01b600052602260045260246000fd5b50919050565b601f821115620001fc57600081815260208120601f850160051c81016020861015620001d75750805b601f850160051c820191505b81811015620001f857828155600101620001e3565b5050505b505050565b81516001600160401b038111156200021d576200021d62000066565b62000235816200022e845462000172565b84620001ae565b602080601f8311600181146200026d5760008415620002545750858301515b600019600386901b1c1916600185901b178555620001f8565b600085815260208120601f198616915b828110156200029e578886015182559484019460019091019084016200027d565b5085821015620002bd5787850151600019600388901b60f8161c191681555b5050505050600190811b01905550565b61196180620002dd6000396000f3fe608060405234801561001057600080fd5b50600436106100ea5760003560e01c806340731c241161008c578063bf0ac63c11610066578063bf0ac63c146101ee578063c163bba714610201578063dac36d6f14610214578063f2fde38b1461021d57600080fd5b806340731c241461019b5780635d299349146101bb5780638da5cb5b146101c357600080fd5b80630b1e7f83116100c85780630b1e7f831461014257806317906c2e1461016857806329530fcb1461017f5780632ef9a1601461019257600080fd5b8063063c36c9146100ef57806306fdde0314610118578063094cd5ee1461012d575b600080fd5b6101026100fd36600461121f565b610230565b60405161010f919061131a565b60405180910390f35b6101206105d7565b60405161010f919061137c565b61014061013b366004611396565b610665565b005b610155610150366004611396565b61072f565b60405161010f97969594939291906113af565b61017160025481565b60405190815260200161010f565b61010261018d36600461140d565b610889565b6101716101f481565b6101ae6101a9366004611396565b610b01565b60405161010f9190611482565b610102610cb2565b6000546101d6906001600160a01b031681565b6040516001600160a01b03909116815260200161010f565b6101406101fc3660046114de565b610cc8565b61014061020f366004611558565b610ec2565b61017161c35081565b61014061022b3660046115c4565b611143565b6060828411156102775760405162461bcd60e51b815260206004820152600d60248201526c496e76616c69642072616e676560981b60448201526064015b60405180910390fd5b6002548311156102c95760405162461bcd60e51b815260206004820152601860248201527f52616e6765206578636565647320706f737420636f756e740000000000000000604482015260640161026e565b60006102d58585611603565b905060008167ffffffffffffffff8111156102f2576102f2611616565b60405190808252806020026020018201604052801561032b57816020015b6103186111d7565b8152602001906001900390816103105790505b5090506000805b8381101561051e576000600381610349848c61162c565b81526020808201929092526040908101600020815160e0810183528154815260018201546001600160a01b03169381019390935260028101805491928401916103919061163f565b80601f01602080910402602001604051908101604052809291908181526020018280546103bd9061163f565b801561040a5780601f106103df5761010080835404028352916020019161040a565b820191906000526020600020905b8154815290600101906020018083116103ed57829003601f168201915b505050505081526020016003820180546104239061163f565b80601f016020809104026020016040519081016040528092919081815260200182805461044f9061163f565b801561049c5780601f106104715761010080835404028352916020019161049c565b820191906000526020600020905b81548152906001019060200180831161047f57829003601f168201915b5050509183525050600482015460208201526005820154604082015260069091015460ff161515606090910152905086806104d957508060c00151155b1561050b57808484815181106104f1576104f1611679565b602002602001018190525082806105079061168f565b9350505b50806105168161168f565b915050610332565b5060008167ffffffffffffffff81111561053a5761053a611616565b60405190808252806020026020018201604052801561057357816020015b6105606111d7565b8152602001906001900390816105585790505b50905060005b828110156105cb5783818151811061059357610593611679565b60200260200101518282815181106105ad576105ad611679565b602002602001018190525080806105c39061168f565b915050610579565b50979650505050505050565b600180546105e49061163f565b80601f01602080910402602001604051908101604052809291908181526020018280546106109061163f565b801561065d5780601f106106325761010080835404028352916020019161065d565b820191906000526020600020905b81548152906001019060200180831161064057829003601f168201915b505050505081565b6000546001600160a01b0316331461068f5760405162461bcd60e51b815260040161026e906116a8565b60025481106106b05760405162461bcd60e51b815260040161026e906116cb565b60008181526003602052604090206006015460ff16156107095760405162461bcd60e51b8152602060048201526014602482015273141bdcdd08185b1c9958591e4819195b195d195960621b604482015260640161026e565b600090815260036020526040902060068101805460ff1916600117905542600490910155565b60036020526000908152604090208054600182015460028301805492936001600160a01b03909216926107619061163f565b80601f016020809104026020016040519081016040528092919081815260200182805461078d9061163f565b80156107da5780601f106107af576101008083540402835291602001916107da565b820191906000526020600020905b8154815290600101906020018083116107bd57829003601f168201915b5050505050908060030180546107ef9061163f565b80601f016020809104026020016040519081016040528092919081815260200182805461081b9061163f565b80156108685780601f1061083d57610100808354040283529160200191610868565b820191906000526020600020905b81548152906001019060200180831161084b57829003601f168201915b50505050600483015460058401546006909401549293909290915060ff1687565b606060008267ffffffffffffffff8111156108a6576108a6611616565b6040519080825280602002602001820160405280156108df57816020015b6108cc6111d7565b8152602001906001900390816108c45790505b50905060005b83811015610af75760025485858381811061090257610902611679565b90506020020135106109265760405162461bcd60e51b815260040161026e906116cb565b6003600086868481811061093c5761093c611679565b60209081029290920135835250818101929092526040908101600020815160e0810183528154815260018201546001600160a01b031693810193909352600281018054919284019161098d9061163f565b80601f01602080910402602001604051908101604052809291908181526020018280546109b99061163f565b8015610a065780601f106109db57610100808354040283529160200191610a06565b820191906000526020600020905b8154815290600101906020018083116109e957829003601f168201915b50505050508152602001600382018054610a1f9061163f565b80601f0160208091040260200160405190810160405280929190818152602001828054610a4b9061163f565b8015610a985780601f10610a6d57610100808354040283529160200191610a98565b820191906000526020600020905b815481529060010190602001808311610a7b57829003601f168201915b5050509183525050600482015460208201526005820154604082015260069091015460ff1615156060909101528251839083908110610ad957610ad9611679565b60200260200101819052508080610aef9061168f565b9150506108e5565b5090505b92915050565b610b096111d7565b6002548210610b2a5760405162461bcd60e51b815260040161026e906116cb565b600082815260036020908152604091829020825160e0810184528154815260018201546001600160a01b0316928101929092526002810180549293919291840191610b749061163f565b80601f0160208091040260200160405190810160405280929190818152602001828054610ba09061163f565b8015610bed5780601f10610bc257610100808354040283529160200191610bed565b820191906000526020600020905b815481529060010190602001808311610bd057829003601f168201915b50505050508152602001600382018054610c069061163f565b80601f0160208091040260200160405190810160405280929190818152602001828054610c329061163f565b8015610c7f5780601f10610c5457610100808354040283529160200191610c7f565b820191906000526020600020905b815481529060010190602001808311610c6257829003601f168201915b5050509183525050600482015460208201526005820154604082015260069091015460ff16151560609091015292915050565b6060610cc360006002546000610230565b905090565b6000546001600160a01b03163314610cf25760405162461bcd60e51b815260040161026e906116a8565b6002548510610d135760405162461bcd60e51b815260040161026e906116cb565b60008581526003602052604090206006015460ff1615610d675760405162461bcd60e51b815260206004820152600f60248201526e141bdcdd081a5cc819195b195d1959608a1b604482015260640161026e565b6101f4831115610daa5760405162461bcd60e51b815260206004820152600e60248201526d5469746c6520746f6f206c6f6e6760901b604482015260640161026e565b61c350811115610dec5760405162461bcd60e51b815260206004820152600d60248201526c426f647920746f6f206c6f6e6760981b604482015260640161026e565b80610e265760405162461bcd60e51b815260206004820152600a602482015269426f647920656d70747960b01b604482015260640161026e565b6000858152600360205260409020600201610e42848683611747565b50600085815260036020819052604090912001610e60828483611747565b50600085815260036020526040908190204260049091018190559051339187917f1947cbf766c888fc9c5f4256cf388fe32d4901ff5bd47d3a4d5318af978cddbe91610eb3918991899189918991611831565b60405180910390a35050505050565b6000546001600160a01b03163314610eec5760405162461bcd60e51b815260040161026e906116a8565b6101f4831115610f2f5760405162461bcd60e51b815260206004820152600e60248201526d5469746c6520746f6f206c6f6e6760901b604482015260640161026e565b61c350811115610f715760405162461bcd60e51b815260206004820152600d60248201526c426f647920746f6f206c6f6e6760981b604482015260640161026e565b80610fab5760405162461bcd60e51b815260206004820152600a602482015269426f647920656d70747960b01b604482015260640161026e565b600060025490506040518060e00160405280828152602001336001600160a01b0316815260200186868080601f016020809104026020016040519081016040528093929190818152602001838380828437600092019190915250505090825250604080516020601f8701819004810282018101909252858152918101919086908690819084018382808284376000920182905250938552505042602080850191909152436040808601919091526060909401839052858352600381529183902084518155918401516001830180546001600160a01b0319166001600160a01b03909216919091179055509082015160028201906110a8908261186b565b50606082015160038201906110bd908261186b565b506080820151600482015560a0820151600582015560c0909101516006909101805460ff1916911515919091179055600280549060006110fc8361168f565b9190505550336001600160a01b0316817f1947cbf766c888fc9c5f4256cf388fe32d4901ff5bd47d3a4d5318af978cddbe8787878742604051610eb3959493929190611831565b6000546001600160a01b0316331461116d5760405162461bcd60e51b815260040161026e906116a8565b6001600160a01b0381166111b55760405162461bcd60e51b815260206004820152600f60248201526e496e76616c6964206164647265737360881b604482015260640161026e565b600080546001600160a01b0319166001600160a01b0392909216919091179055565b6040518060e001604052806000815260200160006001600160a01b03168152602001606081526020016060815260200160008152602001600081526020016000151581525090565b60008060006060848603121561123457600080fd5b83359250602084013591506040840135801515811461125257600080fd5b809150509250925092565b6000815180845260005b8181101561128357602081850181015186830182015201611267565b506000602082860101526020601f19601f83011685010191505092915050565b8051825260018060a01b0360208201511660208301526000604082015160e060408501526112d460e085018261125d565b9050606083015184820360608601526112ed828261125d565b9150506080830151608085015260a083015160a085015260c0830151151560c08501528091505092915050565b6000602080830181845280855180835260408601915060408160051b870101925083870160005b8281101561136f57603f1988860301845261135d8583516112a3565b94509285019290850190600101611341565b5092979650505050505050565b60208152600061138f602083018461125d565b9392505050565b6000602082840312156113a857600080fd5b5035919050565b8781526001600160a01b038716602082015260e0604082018190526000906113d99083018861125d565b82810360608401526113eb818861125d565b6080840196909652505060a0810192909252151560c090910152949350505050565b6000806020838503121561142057600080fd5b823567ffffffffffffffff8082111561143857600080fd5b818501915085601f83011261144c57600080fd5b81358181111561145b57600080fd5b8660208260051b850101111561147057600080fd5b60209290920196919550909350505050565b60208152600061138f60208301846112a3565b60008083601f8401126114a757600080fd5b50813567ffffffffffffffff8111156114bf57600080fd5b6020830191508360208285010111156114d757600080fd5b9250929050565b6000806000806000606086880312156114f657600080fd5b85359450602086013567ffffffffffffffff8082111561151557600080fd5b61152189838a01611495565b9096509450604088013591508082111561153a57600080fd5b5061154788828901611495565b969995985093965092949392505050565b6000806000806040858703121561156e57600080fd5b843567ffffffffffffffff8082111561158657600080fd5b61159288838901611495565b909650945060208701359150808211156115ab57600080fd5b506115b887828801611495565b95989497509550505050565b6000602082840312156115d657600080fd5b81356001600160a01b038116811461138f57600080fd5b634e487b7160e01b600052601160045260246000fd5b81810381811115610afb57610afb6115ed565b634e487b7160e01b600052604160045260246000fd5b80820180821115610afb57610afb6115ed565b600181811c9082168061165357607f821691505b60208210810361167357634e487b7160e01b600052602260045260246000fd5b50919050565b634e487b7160e01b600052603260045260246000fd5b6000600182016116a1576116a16115ed565b5060010190565b6020808252600990820152682737ba1037bbb732b960b91b604082015260600190565b602080825260139082015272141bdcdd08191bd95cc81b9bdd08195e1a5cdd606a1b604082015260600190565b601f82111561174257600081815260208120601f850160051c8101602086101561171f5750805b601f850160051c820191505b8181101561173e5782815560010161172b565b5050505b505050565b67ffffffffffffffff83111561175f5761175f611616565b6117738361176d835461163f565b836116f8565b6000601f8411600181146117a7576000851561178f5750838201355b600019600387901b1c1916600186901b178355611801565b600083815260209020601f19861690835b828110156117d857868501358255602094850194600190920191016117b8565b50868210156117f55760001960f88860031b161c19848701351681555b505060018560011b0183555b5050505050565b81835281816020850137506000828201602090810191909152601f909101601f19169091010190565b606081526000611845606083018789611808565b8281036020840152611858818688611808565b9150508260408301529695505050505050565b815167ffffffffffffffff81111561188557611885611616565b61189981611893845461163f565b846116f8565b602080601f8311600181146118ce57600084156118b65750858301515b600019600386901b1c1916600185901b17855561173e565b600085815260208120601f198616915b828110156118fd578886015182559484019460019091019084016118de565b508582101561191b5787850151600019600388901b60f8161c191681555b5050505050600190811b0190555056fea2646970667358221220f30079f84a6fdb53afa8994189e3a652f7da9abe0b656d68b8258a128238b24a64736f6c63430008130033",
  "linkReferences": {},
  "deployedLinkReferences": {}
}